{
  "contractName": "Voting",
  "abi": [
    {
      "anonymous": false,
      "inputs": [
        {
          "indexed": true,
          "internalType": "address",
          "name": "previousOwner",
          "type": "address"
        },
        {
          "indexed": true,
          "internalType": "address",
          "name": "newOwner",
          "type": "address"
        }
      ],
      "name": "OwnershipTransferred",
      "type": "event"
    },
    {
      "anonymous": false,
      "inputs": [
        {
          "indexed": false,
          "internalType": "uint256",
          "name": "proposalId",
          "type": "uint256"
        }
      ],
      "name": "ProposalRegistered",
      "type": "event"
    },
    {
      "anonymous": false,
      "inputs": [
        {
          "indexed": false,
          "internalType": "address",
          "name": "voter",
          "type": "address"
        },
        {
          "indexed": false,
          "internalType": "uint256",
          "name": "proposalId",
          "type": "uint256"
        }
      ],
      "name": "Voted",
      "type": "event"
    },
    {
      "anonymous": false,
      "inputs": [
        {
          "indexed": false,
          "internalType": "address",
          "name": "voterAddress",
          "type": "address"
        }
      ],
      "name": "VoterRegistered",
      "type": "event"
    },
    {
      "anonymous": false,
      "inputs": [
        {
          "indexed": false,
          "internalType": "enum Voting.WorkflowStatus",
          "name": "previousStatus",
          "type": "uint8"
        },
        {
          "indexed": false,
          "internalType": "enum Voting.WorkflowStatus",
          "name": "newStatus",
          "type": "uint8"
        }
      ],
      "name": "WorkflowStatusChange",
      "type": "event"
    },
    {
      "inputs": [],
      "name": "description",
      "outputs": [
        {
          "internalType": "string",
          "name": "",
          "type": "string"
        }
      ],
      "stateMutability": "view",
      "type": "function"
    },
    {
      "inputs": [],
      "name": "owner",
      "outputs": [
        {
          "internalType": "address",
          "name": "",
          "type": "address"
        }
      ],
      "stateMutability": "view",
      "type": "function"
    },
    {
      "inputs": [],
      "name": "renounceOwnership",
      "outputs": [],
      "stateMutability": "nonpayable",
      "type": "function"
    },
    {
      "inputs": [
        {
          "internalType": "address",
          "name": "newOwner",
          "type": "address"
        }
      ],
      "name": "transferOwnership",
      "outputs": [],
      "stateMutability": "nonpayable",
      "type": "function"
    },
    {
      "inputs": [],
      "name": "winningProposalID",
      "outputs": [
        {
          "internalType": "uint256",
          "name": "",
          "type": "uint256"
        }
      ],
      "stateMutability": "view",
      "type": "function"
    },
    {
      "inputs": [],
      "name": "workflowStatus",
      "outputs": [
        {
          "internalType": "enum Voting.WorkflowStatus",
          "name": "",
          "type": "uint8"
        }
      ],
      "stateMutability": "view",
      "type": "function"
    },
    {
      "inputs": [
        {
          "internalType": "string",
          "name": "_description",
          "type": "string"
        }
      ],
      "name": "setDescription",
      "outputs": [],
      "stateMutability": "nonpayable",
      "type": "function"
    },
    {
      "inputs": [
        {
          "internalType": "address",
          "name": "_addr",
          "type": "address"
        }
      ],
      "name": "getVoter",
      "outputs": [
        {
          "components": [
            {
              "internalType": "bool",
              "name": "isRegistered",
              "type": "bool"
            },
            {
              "internalType": "bool",
              "name": "hasVoted",
              "type": "bool"
            },
            {
              "internalType": "uint256",
              "name": "proposalRegisteredCount",
              "type": "uint256"
            },
            {
              "internalType": "uint256",
              "name": "votedProposalId",
              "type": "uint256"
            }
          ],
          "internalType": "struct Voting.Voter",
          "name": "",
          "type": "tuple"
        }
      ],
      "stateMutability": "view",
      "type": "function"
    },
    {
      "inputs": [
        {
          "internalType": "uint256",
          "name": "_id",
          "type": "uint256"
        }
      ],
      "name": "getOneProposal",
      "outputs": [
        {
          "components": [
            {
              "internalType": "string",
              "name": "description",
              "type": "string"
            },
            {
              "internalType": "uint256",
              "name": "voteCount",
              "type": "uint256"
            }
          ],
          "internalType": "struct Voting.Proposal",
          "name": "",
          "type": "tuple"
        }
      ],
      "stateMutability": "view",
      "type": "function"
    },
    {
      "inputs": [
        {
          "internalType": "address",
          "name": "_addr",
          "type": "address"
        }
      ],
      "name": "addVoter",
      "outputs": [],
      "stateMutability": "nonpayable",
      "type": "function"
    },
    {
      "inputs": [
        {
          "internalType": "string",
          "name": "_desc",
          "type": "string"
        }
      ],
      "name": "addProposal",
      "outputs": [],
      "stateMutability": "nonpayable",
      "type": "function"
    },
    {
      "inputs": [
        {
          "internalType": "uint256",
          "name": "_id",
          "type": "uint256"
        }
      ],
      "name": "setVote",
      "outputs": [],
      "stateMutability": "nonpayable",
      "type": "function"
    },
    {
      "inputs": [],
      "name": "startProposalsRegistering",
      "outputs": [],
      "stateMutability": "nonpayable",
      "type": "function"
    },
    {
      "inputs": [],
      "name": "endProposalsRegistering",
      "outputs": [],
      "stateMutability": "nonpayable",
      "type": "function"
    },
    {
      "inputs": [],
      "name": "startVotingSession",
      "outputs": [],
      "stateMutability": "nonpayable",
      "type": "function"
    },
    {
      "inputs": [],
      "name": "endVotingSession",
      "outputs": [],
      "stateMutability": "nonpayable",
      "type": "function"
    },
    {
      "inputs": [],
      "name": "tallyVotes",
      "outputs": [],
      "stateMutability": "nonpayable",
      "type": "function"
    }
  ],
  "bytecode": "0x60806040523480156200001157600080fd5b5062000032620000266200003860201b60201c565b6200004060201b60201c565b62000104565b600033905090565b60008060009054906101000a900473ffffffffffffffffffffffffffffffffffffffff169050816000806101000a81548173ffffffffffffffffffffffffffffffffffffffff021916908373ffffffffffffffffffffffffffffffffffffffff1602179055508173ffffffffffffffffffffffffffffffffffffffff168173ffffffffffffffffffffffffffffffffffffffff167f8be0079c531659141344cd1fd0a4f28419497f9722a3daafe3b4186f6b6457e060405160405180910390a35050565b6125d280620001146000396000f3fe608060405234801561001057600080fd5b506004361061010b5760003560e01c8063a2788cce116100a2578063c88af42f11610071578063c88af42f14610234578063d4f50f981461023e578063ee74c6781461026e578063f2fde38b14610278578063f4ab9adf146102945761010b565b8063a2788cce146101d2578063a7bfab1614610202578063bdc014311461020c578063c7038a4e1461022a5761010b565b80637284e416116100de5780637284e4161461015c5780638da5cb5b1461017a57806390c3f38f14610198578063a1edffa2146101b45761010b565b8063230796ae146101105780632fdae3c51461012c578063378a217814610148578063715018a614610152575b600080fd5b61012a60048036038101906101259190611772565b6102b0565b005b61014660048036038101906101419190611804565b6105ab565b005b610150610912565b005b61015a610a7f565b005b610164610a93565b60405161017191906118ea565b60405180910390f35b610182610b21565b60405161018f919061194d565b60405180910390f35b6101b260048036038101906101ad9190611804565b610b4a565b005b6101bc610b68565b6040516101c991906119df565b60405180910390f35b6101ec60048036038101906101e79190611772565b610b7b565b6040516101f99190611a90565b60405180910390f35b61020a610ce2565b005b610214610dc8565b6040516102219190611ac1565b60405180910390f35b610232610dce565b005b61023c610f50565b005b61025860048036038101906102539190611b08565b611036565b6040516102659190611ba5565b60405180910390f35b610276611168565b005b610292600480360381019061028d9190611b08565b61124d565b005b6102ae60048036038101906102a99190611b08565b6112d0565b005b600560003373ffffffffffffffffffffffffffffffffffffffff1673ffffffffffffffffffffffffffffffffffffffff16815260200190815260200160002060000160009054906101000a900460ff1661033f576040517f08c379a000000000000000000000000000000000000000000000000000000000815260040161033690611c0c565b60405180910390fd5b6003600581111561035357610352611968565b5b600360009054906101000a900460ff16600581111561037557610374611968565b5b146103b5576040517f08c379a00000000000000000000000000000000000000000000000000000000081526004016103ac90611c9e565b60405180910390fd5b60011515600560003373ffffffffffffffffffffffffffffffffffffffff1673ffffffffffffffffffffffffffffffffffffffff16815260200190815260200160002060000160019054906101000a900460ff1615150361044b576040517f08c379a000000000000000000000000000000000000000000000000000000000815260040161044290611d0a565b60405180910390fd5b6004805490508110610492576040517f08c379a000000000000000000000000000000000000000000000000000000000815260040161048990611d76565b60405180910390fd5b80600560003373ffffffffffffffffffffffffffffffffffffffff1673ffffffffffffffffffffffffffffffffffffffff168152602001908152602001600020600201819055506001600560003373ffffffffffffffffffffffffffffffffffffffff1673ffffffffffffffffffffffffffffffffffffffff16815260200190815260200160002060000160016101000a81548160ff0219169083151502179055506004818154811061054857610547611d96565b5b9060005260206000209060020201600101600081548092919061056a90611df4565b91905055507f4d99b957a2bc29a30ebd96a7be8e68fe50a3c701db28a91436490b7d53870ca433826040516105a0929190611e3c565b60405180910390a150565b600560003373ffffffffffffffffffffffffffffffffffffffff1673ffffffffffffffffffffffffffffffffffffffff16815260200190815260200160002060000160009054906101000a900460ff1661063a576040517f08c379a000000000000000000000000000000000000000000000000000000000815260040161063190611c0c565b60405180910390fd5b6001600581111561064e5761064d611968565b5b600360009054906101000a900460ff1660058111156106705761066f611968565b5b146106b0576040517f08c379a00000000000000000000000000000000000000000000000000000000081526004016106a790611eb1565b60405180910390fd5b6040516020016106bf90611ef7565b6040516020818303038152906040528051906020012082826040516020016106e8929190611f53565b604051602081830303815290604052805190602001200361073e576040517f08c379a000000000000000000000000000000000000000000000000000000000815260040161073590611fe9565b60405180910390fd5b6003600560003373ffffffffffffffffffffffffffffffffffffffff1673ffffffffffffffffffffffffffffffffffffffff16815260200190815260200160002060010154106107c3576040517f08c379a00000000000000000000000000000000000000000000000000000000081526004016107ba9061207b565b60405180910390fd5b6107cb6115c3565b82828080601f016020809104026020016040519081016040528093929190818152602001838380828437600081840152601f19601f820116905080830192505050505050508160000181905250600481908060018154018082558091505060019003906000526020600020906002020160009091909190915060008201518160000190805190602001906108609291906115dd565b50602082015181600101555050600560003373ffffffffffffffffffffffffffffffffffffffff1673ffffffffffffffffffffffffffffffffffffffff16815260200190815260200160002060010160008154809291906108c090611df4565b91905055507f92e393e9b54e2f801d3ea4beb0c5e71a21cc34a5d34b77d0fb8a3aa1650dc18f60016004805490506108f8919061209b565b6040516109059190611ac1565b60405180910390a1505050565b61091a611479565b6004600581111561092e5761092d611968565b5b600360009054906101000a900460ff1660058111156109505761094f611968565b5b14610990576040517f08c379a000000000000000000000000000000000000000000000000000000000815260040161098790612141565b60405180910390fd5b600080600090505b600480549050811015610a0e57600482815481106109b9576109b8611d96565b5b906000526020600020906002020160010154600482815481106109df576109de611d96565b5b90600052602060002090600202016001015411156109fb578091505b8080610a0690611df4565b915050610998565b50806001819055506005600360006101000a81548160ff02191690836005811115610a3c57610a3b611968565b5b02179055507f0a97a4ee45751e2abf3e4fc8946939630b11b371ea8ae39ccdc3056e98f5cc3f60046005604051610a74929190612161565b60405180910390a150565b610a87611479565b610a9160006114f7565b565b60028054610aa0906121b9565b80601f0160208091040260200160405190810160405280929190818152602001828054610acc906121b9565b8015610b195780601f10610aee57610100808354040283529160200191610b19565b820191906000526020600020905b815481529060010190602001808311610afc57829003601f168201915b505050505081565b60008060009054906101000a900473ffffffffffffffffffffffffffffffffffffffff16905090565b610b52611479565b818160029190610b63929190611663565b505050565b600360009054906101000a900460ff1681565b610b836115c3565b600560003373ffffffffffffffffffffffffffffffffffffffff1673ffffffffffffffffffffffffffffffffffffffff16815260200190815260200160002060000160009054906101000a900460ff16610c12576040517f08c379a0000000000000000000000000000000000000000000000000000000008152600401610c0990611c0c565b60405180910390fd5b60048281548110610c2657610c25611d96565b5b9060005260206000209060020201604051806040016040529081600082018054610c4f906121b9565b80601f0160208091040260200160405190810160405280929190818152602001828054610c7b906121b9565b8015610cc85780601f10610c9d57610100808354040283529160200191610cc8565b820191906000526020600020905b815481529060010190602001808311610cab57829003601f168201915b505050505081526020016001820154815250509050919050565b610cea611479565b60036005811115610cfe57610cfd611968565b5b600360009054906101000a900460ff166005811115610d2057610d1f611968565b5b14610d60576040517f08c379a0000000000000000000000000000000000000000000000000000000008152600401610d5790611c9e565b60405180910390fd5b6004600360006101000a81548160ff02191690836005811115610d8657610d85611968565b5b02179055507f0a97a4ee45751e2abf3e4fc8946939630b11b371ea8ae39ccdc3056e98f5cc3f60036004604051610dbe929190612161565b60405180910390a1565b60015481565b610dd6611479565b60006005811115610dea57610de9611968565b5b600360009054906101000a900460ff166005811115610e0c57610e0b611968565b5b14610e4c576040517f08c379a0000000000000000000000000000000000000000000000000000000008152600401610e439061225c565b60405180910390fd5b6001600360006101000a81548160ff02191690836005811115610e7257610e71611968565b5b0217905550610e7f6115c3565b6040518060400160405280600781526020017f47454e4553495300000000000000000000000000000000000000000000000000815250816000018190525060048190806001815401808255809150506001900390600052602060002090600202016000909190919091506000820151816000019080519060200190610f059291906115dd565b506020820151816001015550507f0a97a4ee45751e2abf3e4fc8946939630b11b371ea8ae39ccdc3056e98f5cc3f60006001604051610f45929190612161565b60405180910390a150565b610f58611479565b60016005811115610f6c57610f6b611968565b5b600360009054906101000a900460ff166005811115610f8e57610f8d611968565b5b14610fce576040517f08c379a0000000000000000000000000000000000000000000000000000000008152600401610fc5906122ee565b60405180910390fd5b6002600360006101000a81548160ff02191690836005811115610ff457610ff3611968565b5b02179055507f0a97a4ee45751e2abf3e4fc8946939630b11b371ea8ae39ccdc3056e98f5cc3f6001600260405161102c929190612161565b60405180910390a1565b61103e6116e9565b600560003373ffffffffffffffffffffffffffffffffffffffff1673ffffffffffffffffffffffffffffffffffffffff16815260200190815260200160002060000160009054906101000a900460ff166110cd576040517f08c379a00000000000000000000000000000000000000000000000000000000081526004016110c490611c0c565b60405180910390fd5b600560008373ffffffffffffffffffffffffffffffffffffffff1673ffffffffffffffffffffffffffffffffffffffff1681526020019081526020016000206040518060800160405290816000820160009054906101000a900460ff161515151581526020016000820160019054906101000a900460ff16151515158152602001600182015481526020016002820154815250509050919050565b611170611479565b6002600581111561118457611183611968565b5b600360009054906101000a900460ff1660058111156111a6576111a5611968565b5b146111e6576040517f08c379a00000000000000000000000000000000000000000000000000000000081526004016111dd90612380565b60405180910390fd5b60038060006101000a81548160ff0219169083600581111561120b5761120a611968565b5b02179055507f0a97a4ee45751e2abf3e4fc8946939630b11b371ea8ae39ccdc3056e98f5cc3f60026003604051611243929190612161565b60405180910390a1565b611255611479565b600073ffffffffffffffffffffffffffffffffffffffff168173ffffffffffffffffffffffffffffffffffffffff16036112c4576040517f08c379a00000000000000000000000000000000000000000000000000000000081526004016112bb90612412565b60405180910390fd5b6112cd816114f7565b50565b6112d8611479565b600060058111156112ec576112eb611968565b5b600360009054906101000a900460ff16600581111561130e5761130d611968565b5b1461134e576040517f08c379a0000000000000000000000000000000000000000000000000000000008152600401611345906124a4565b60405180910390fd5b60011515600560008373ffffffffffffffffffffffffffffffffffffffff1673ffffffffffffffffffffffffffffffffffffffff16815260200190815260200160002060000160009054906101000a900460ff161515036113e4576040517f08c379a00000000000000000000000000000000000000000000000000000000081526004016113db90612510565b60405180910390fd5b6001600560008373ffffffffffffffffffffffffffffffffffffffff1673ffffffffffffffffffffffffffffffffffffffff16815260200190815260200160002060000160006101000a81548160ff0219169083151502179055507fb6be2187d059cc2a55fe29e0e503b566e1e0f8c8780096e185429350acffd3dd8160405161146e919061194d565b60405180910390a150565b6114816115bb565b73ffffffffffffffffffffffffffffffffffffffff1661149f610b21565b73ffffffffffffffffffffffffffffffffffffffff16146114f5576040517f08c379a00000000000000000000000000000000000000000000000000000000081526004016114ec9061257c565b60405180910390fd5b565b60008060009054906101000a900473ffffffffffffffffffffffffffffffffffffffff169050816000806101000a81548173ffffffffffffffffffffffffffffffffffffffff021916908373ffffffffffffffffffffffffffffffffffffffff1602179055508173ffffffffffffffffffffffffffffffffffffffff168173ffffffffffffffffffffffffffffffffffffffff167f8be0079c531659141344cd1fd0a4f28419497f9722a3daafe3b4186f6b6457e060405160405180910390a35050565b600033905090565b604051806040016040528060608152602001600081525090565b8280546115e9906121b9565b90600052602060002090601f01602090048101928261160b5760008555611652565b82601f1061162457805160ff1916838001178555611652565b82800160010185558215611652579182015b82811115611651578251825591602001919060010190611636565b5b50905061165f9190611715565b5090565b82805461166f906121b9565b90600052602060002090601f01602090048101928261169157600085556116d8565b82601f106116aa57803560ff19168380011785556116d8565b828001600101855582156116d8579182015b828111156116d75782358255916020019190600101906116bc565b5b5090506116e59190611715565b5090565b604051806080016040528060001515815260200160001515815260200160008152602001600081525090565b5b8082111561172e576000816000905550600101611716565b5090565b600080fd5b600080fd5b6000819050919050565b61174f8161173c565b811461175a57600080fd5b50565b60008135905061176c81611746565b92915050565b60006020828403121561178857611787611732565b5b60006117968482850161175d565b91505092915050565b600080fd5b600080fd5b600080fd5b60008083601f8401126117c4576117c361179f565b5b8235905067ffffffffffffffff8111156117e1576117e06117a4565b5b6020830191508360018202830111156117fd576117fc6117a9565b5b9250929050565b6000806020838503121561181b5761181a611732565b5b600083013567ffffffffffffffff81111561183957611838611737565b5b611845858286016117ae565b92509250509250929050565b600081519050919050565b600082825260208201905092915050565b60005b8381101561188b578082015181840152602081019050611870565b8381111561189a576000848401525b50505050565b6000601f19601f8301169050919050565b60006118bc82611851565b6118c6818561185c565b93506118d681856020860161186d565b6118df816118a0565b840191505092915050565b6000602082019050818103600083015261190481846118b1565b905092915050565b600073ffffffffffffffffffffffffffffffffffffffff82169050919050565b60006119378261190c565b9050919050565b6119478161192c565b82525050565b6000602082019050611962600083018461193e565b92915050565b7f4e487b7100000000000000000000000000000000000000000000000000000000600052602160045260246000fd5b600681106119a8576119a7611968565b5b50565b60008190506119b982611997565b919050565b60006119c9826119ab565b9050919050565b6119d9816119be565b82525050565b60006020820190506119f460008301846119d0565b92915050565b600082825260208201905092915050565b6000611a1682611851565b611a2081856119fa565b9350611a3081856020860161186d565b611a39816118a0565b840191505092915050565b611a4d8161173c565b82525050565b60006040830160008301518482036000860152611a708282611a0b565b9150506020830151611a856020860182611a44565b508091505092915050565b60006020820190508181036000830152611aaa8184611a53565b905092915050565b611abb8161173c565b82525050565b6000602082019050611ad66000830184611ab2565b92915050565b611ae58161192c565b8114611af057600080fd5b50565b600081359050611b0281611adc565b92915050565b600060208284031215611b1e57611b1d611732565b5b6000611b2c84828501611af3565b91505092915050565b60008115159050919050565b611b4a81611b35565b82525050565b608082016000820151611b666000850182611b41565b506020820151611b796020850182611b41565b506040820151611b8c6040850182611a44565b506060820151611b9f6060850182611a44565b50505050565b6000608082019050611bba6000830184611b50565b92915050565b7f596f75277265206e6f74206120766f7465720000000000000000000000000000600082015250565b6000611bf660128361185c565b9150611c0182611bc0565b602082019050919050565b60006020820190508181036000830152611c2581611be9565b9050919050565b7f566f74696e672073657373696f6e20686176656e74207374617274656420796560008201527f7400000000000000000000000000000000000000000000000000000000000000602082015250565b6000611c8860218361185c565b9150611c9382611c2c565b604082019050919050565b60006020820190508181036000830152611cb781611c7b565b9050919050565b7f596f75206861766520616c726561647920766f74656400000000000000000000600082015250565b6000611cf460168361185c565b9150611cff82611cbe565b602082019050919050565b60006020820190508181036000830152611d2381611ce7565b9050919050565b7f50726f706f73616c206e6f7420666f756e640000000000000000000000000000600082015250565b6000611d6060128361185c565b9150611d6b82611d2a565b602082019050919050565b60006020820190508181036000830152611d8f81611d53565b9050919050565b7f4e487b7100000000000000000000000000000000000000000000000000000000600052603260045260246000fd5b7f4e487b7100000000000000000000000000000000000000000000000000000000600052601160045260246000fd5b6000611dff8261173c565b91507fffffffffffffffffffffffffffffffffffffffffffffffffffffffffffffffff8203611e3157611e30611dc5565b5b600182019050919050565b6000604082019050611e51600083018561193e565b611e5e6020830184611ab2565b9392505050565b7f50726f706f73616c7320617265206e6f7420616c6c6f77656420796574000000600082015250565b6000611e9b601d8361185c565b9150611ea682611e65565b602082019050919050565b60006020820190508181036000830152611eca81611e8e565b9050919050565b50565b6000611ee160008361185c565b9150611eec82611ed1565b600082019050919050565b60006020820190508181036000830152611f1081611ed4565b9050919050565b82818337600083830152505050565b6000611f32838561185c565b9350611f3f838584611f17565b611f48836118a0565b840190509392505050565b60006020820190508181036000830152611f6e818486611f26565b90509392505050565b7f566f7573206e6520706f7576657a20706173206e65207269656e2070726f706f60008201527f7365720000000000000000000000000000000000000000000000000000000000602082015250565b6000611fd360238361185c565b9150611fde82611f77565b604082019050919050565b6000602082019050818103600083015261200281611fc6565b9050919050565b7f566f7573206e6520706f7576657a20706173206661697265202b20646520332060008201527f70726f706f736974696f6e730000000000000000000000000000000000000000602082015250565b6000612065602c8361185c565b915061207082612009565b604082019050919050565b6000602082019050818103600083015261209481612058565b9050919050565b60006120a68261173c565b91506120b18361173c565b9250828210156120c4576120c3611dc5565b5b828203905092915050565b7f43757272656e7420737461747573206973206e6f7420766f74696e672073657360008201527f73696f6e20656e64656400000000000000000000000000000000000000000000602082015250565b600061212b602a8361185c565b9150612136826120cf565b604082019050919050565b6000602082019050818103600083015261215a8161211e565b9050919050565b600060408201905061217660008301856119d0565b61218360208301846119d0565b9392505050565b7f4e487b7100000000000000000000000000000000000000000000000000000000600052602260045260246000fd5b600060028204905060018216806121d157607f821691505b6020821081036121e4576121e361218a565b5b50919050565b7f5265676973746572696e672070726f706f73616c732063616e7420626520737460008201527f6172746564206e6f770000000000000000000000000000000000000000000000602082015250565b600061224660298361185c565b9150612251826121ea565b604082019050919050565b6000602082019050818103600083015261227581612239565b9050919050565b7f5265676973746572696e672070726f706f73616c7320686176656e742073746160008201527f7274656420796574000000000000000000000000000000000000000000000000602082015250565b60006122d860288361185c565b91506122e38261227c565b604082019050919050565b60006020820190508181036000830152612307816122cb565b9050919050565b7f5265676973746572696e672070726f706f73616c73207068617365206973206e60008201527f6f742066696e6973686564000000000000000000000000000000000000000000602082015250565b600061236a602b8361185c565b91506123758261230e565b604082019050919050565b600060208201905081810360008301526123998161235d565b9050919050565b7f4f776e61626c653a206e6577206f776e657220697320746865207a65726f206160008201527f6464726573730000000000000000000000000000000000000000000000000000602082015250565b60006123fc60268361185c565b9150612407826123a0565b604082019050919050565b6000602082019050818103600083015261242b816123ef565b9050919050565b7f566f7465727320726567697374726174696f6e206973206e6f74206f70656e2060008201527f7965740000000000000000000000000000000000000000000000000000000000602082015250565b600061248e60238361185c565b915061249982612432565b604082019050919050565b600060208201905081810360008301526124bd81612481565b9050919050565b7f416c726561647920726567697374657265640000000000000000000000000000600082015250565b60006124fa60128361185c565b9150612505826124c4565b602082019050919050565b60006020820190508181036000830152612529816124ed565b9050919050565b7f4f776e61626c653a2063616c6c6572206973206e6f7420746865206f776e6572600082015250565b600061256660208361185c565b915061257182612530565b602082019050919050565b6000602082019050818103600083015261259581612559565b905091905056fea2646970667358221220b4c4a036c7072986c50bcb1f0a6e0110d532b752d73e789b7b1e99a67a2b7c7f64736f6c634300080d0033",
  "immutableReferences": {},
  "source": "// SPDX-License-Identifier: MIT\n\npragma solidity 0.8.13;\n// import 'https://github.com/OpenZeppelin/openzeppelin-contracts/blob/master/contracts/access/Ownable.sol';\nimport \"../node_modules/@openzeppelin/contracts/access/Ownable.sol\";\n\n\ncontract Voting is Ownable {\n\n    uint public winningProposalID;\n    string public description;\n\n    struct Voter {\n        bool isRegistered;\n        bool hasVoted;\n        uint proposalRegisteredCount; // limit to 3\n        // Si un voter peut ajouter autant de proposition qu'il veut, il peut alors faire grossir le tableau au point de ne plus pouvoir appeller la function \"tallyvotes\"\n        uint votedProposalId;\n    }\n\n    struct Proposal {\n        string description;\n        uint voteCount;\n    }\n\n    enum WorkflowStatus {\n        RegisteringVoters,\n        ProposalsRegistrationStarted,\n        ProposalsRegistrationEnded,\n        VotingSessionStarted,\n        VotingSessionEnded,\n        VotesTallied\n    }\n\n    WorkflowStatus public workflowStatus;\n    Proposal[] proposalsArray;\n    mapping (address => Voter) voters;\n\n\n    event VoterRegistered(address voterAddress);\n    event WorkflowStatusChange(WorkflowStatus previousStatus, WorkflowStatus newStatus);\n    event ProposalRegistered(uint proposalId);\n    event Voted (address voter, uint proposalId);\n\n    modifier onlyVoters() {\n        require(voters[msg.sender].isRegistered, \"You're not a voter\");\n        _;\n    }\n\n    // on peut faire un modifier pour les tats\n\n    function setDescription(string calldata _description) external onlyOwner {\n        description = _description;\n    }\n\n    // ::::::::::::: GETTERS ::::::::::::: //\n\n    function getVoter(address _addr) external onlyVoters view returns (Voter memory) {\n        return voters[_addr];\n    }\n\n    function getOneProposal(uint _id) external onlyVoters view returns (Proposal memory) {\n        return proposalsArray[_id];\n    }\n\n\n    // ::::::::::::: REGISTRATION ::::::::::::: //\n\n    function addVoter(address _addr) external onlyOwner {\n        require(workflowStatus == WorkflowStatus.RegisteringVoters, 'Voters registration is not open yet');\n        require(voters[_addr].isRegistered != true, 'Already registered');\n\n        voters[_addr].isRegistered = true;\n        emit VoterRegistered(_addr);\n    }\n\n\n    // ::::::::::::: PROPOSAL ::::::::::::: //\n\n    function addProposal(string calldata _desc) external onlyVoters {\n        require(workflowStatus == WorkflowStatus.ProposalsRegistrationStarted, 'Proposals are not allowed yet');\n        require(keccak256(abi.encode(_desc)) != keccak256(abi.encode(\"\")), 'Vous ne pouvez pas ne rien proposer'); // facultatif\n        // voir que desc est different des autres\n        require(voters[msg.sender].proposalRegisteredCount < 3, 'Vous ne pouvez pas faire + de 3 propositions');\n\n        Proposal memory proposal;\n        proposal.description = _desc;\n        proposalsArray.push(proposal);\n        voters[msg.sender].proposalRegisteredCount++;\n        emit ProposalRegistered(proposalsArray.length-1);\n    }\n\n    // ::::::::::::: VOTE ::::::::::::: //\n\n    function setVote( uint _id) external onlyVoters {\n        require(workflowStatus == WorkflowStatus.VotingSessionStarted, 'Voting session havent started yet');\n        require(voters[msg.sender].hasVoted != true, 'You have already voted');\n        require(_id < proposalsArray.length, 'Proposal not found'); // pas oblig, et pas besoin du >0 car uint\n\n        voters[msg.sender].votedProposalId = _id;\n        voters[msg.sender].hasVoted = true;\n        proposalsArray[_id].voteCount++;\n\n        emit Voted(msg.sender, _id);\n    }\n\n    // ::::::::::::: STATE ::::::::::::: //\n\n\n    function startProposalsRegistering() external onlyOwner {\n        require(workflowStatus == WorkflowStatus.RegisteringVoters, 'Registering proposals cant be started now');\n        workflowStatus = WorkflowStatus.ProposalsRegistrationStarted;\n\n        Proposal memory proposal;\n        proposal.description = \"GENESIS\";\n        proposalsArray.push(proposal);\n\n        emit WorkflowStatusChange(WorkflowStatus.RegisteringVoters, WorkflowStatus.ProposalsRegistrationStarted);\n    }\n\n    function endProposalsRegistering() external onlyOwner {\n        require(workflowStatus == WorkflowStatus.ProposalsRegistrationStarted, 'Registering proposals havent started yet');\n        workflowStatus = WorkflowStatus.ProposalsRegistrationEnded;\n        emit WorkflowStatusChange(WorkflowStatus.ProposalsRegistrationStarted, WorkflowStatus.ProposalsRegistrationEnded);\n    }\n\n    function startVotingSession() external onlyOwner {\n        require(workflowStatus == WorkflowStatus.ProposalsRegistrationEnded, 'Registering proposals phase is not finished');\n        workflowStatus = WorkflowStatus.VotingSessionStarted;\n        emit WorkflowStatusChange(WorkflowStatus.ProposalsRegistrationEnded, WorkflowStatus.VotingSessionStarted);\n    }\n\n    function endVotingSession() external onlyOwner {\n        require(workflowStatus == WorkflowStatus.VotingSessionStarted, 'Voting session havent started yet');\n        workflowStatus = WorkflowStatus.VotingSessionEnded;\n        emit WorkflowStatusChange(WorkflowStatus.VotingSessionStarted, WorkflowStatus.VotingSessionEnded);\n    }\n\n\n   function tallyVotes() external onlyOwner {\n       require(workflowStatus == WorkflowStatus.VotingSessionEnded, \"Current status is not voting session ended\");\n       uint _winningProposalId;\n      for (uint256 p = 0; p < proposalsArray.length; p++) {\n           if (proposalsArray[p].voteCount > proposalsArray[_winningProposalId].voteCount) {\n               _winningProposalId = p;\n          }\n       }\n       winningProposalID = _winningProposalId;\n\n       workflowStatus = WorkflowStatus.VotesTallied;\n       emit WorkflowStatusChange(WorkflowStatus.VotingSessionEnded, WorkflowStatus.VotesTallied);\n    }\n}",
  "sourcePath": "/Volumes/code/Alyra/VotingDapp/truffle/contracts/Voting.sol",
  "compiler": {
    "name": "solc",
    "version": "0.8.13+commit.abaa5c0e.Emscripten.clang"
  },
  "schemaVersion": "3.4.10",
  "updatedAt": "2022-11-21T23:37:22.901Z",
  "devdoc": {
    "kind": "dev",
    "methods": {
      "owner()": {
        "details": "Returns the address of the current owner."
      },
      "renounceOwnership()": {
        "details": "Leaves the contract without owner. It will not be possible to call `onlyOwner` functions anymore. Can only be called by the current owner. NOTE: Renouncing ownership will leave the contract without an owner, thereby removing any functionality that is only available to the owner."
      },
      "transferOwnership(address)": {
        "details": "Transfers ownership of the contract to a new account (`newOwner`). Can only be called by the current owner."
      }
    },
    "version": 1
  },
  "userdoc": {
    "kind": "user",
    "methods": {},
    "version": 1
  }
}