{
  "contractName": "Voting",
  "abi": [
    {
      "anonymous": false,
      "inputs": [
        {
          "indexed": true,
          "internalType": "address",
          "name": "previousOwner",
          "type": "address"
        },
        {
          "indexed": true,
          "internalType": "address",
          "name": "newOwner",
          "type": "address"
        }
      ],
      "name": "OwnershipTransferred",
      "type": "event"
    },
    {
      "anonymous": false,
      "inputs": [
        {
          "indexed": false,
          "internalType": "uint256",
          "name": "proposalId",
          "type": "uint256"
        }
      ],
      "name": "ProposalRegistered",
      "type": "event"
    },
    {
      "anonymous": false,
      "inputs": [
        {
          "indexed": false,
          "internalType": "address",
          "name": "voter",
          "type": "address"
        },
        {
          "indexed": false,
          "internalType": "uint256",
          "name": "proposalId",
          "type": "uint256"
        }
      ],
      "name": "Voted",
      "type": "event"
    },
    {
      "anonymous": false,
      "inputs": [
        {
          "indexed": false,
          "internalType": "address",
          "name": "voterAddress",
          "type": "address"
        }
      ],
      "name": "VoterRegistered",
      "type": "event"
    },
    {
      "anonymous": false,
      "inputs": [
        {
          "indexed": false,
          "internalType": "enum Voting.WorkflowStatus",
          "name": "previousStatus",
          "type": "uint8"
        },
        {
          "indexed": false,
          "internalType": "enum Voting.WorkflowStatus",
          "name": "newStatus",
          "type": "uint8"
        }
      ],
      "name": "WorkflowStatusChange",
      "type": "event"
    },
    {
      "inputs": [],
      "name": "description",
      "outputs": [
        {
          "internalType": "string",
          "name": "",
          "type": "string"
        }
      ],
      "stateMutability": "view",
      "type": "function"
    },
    {
      "inputs": [],
      "name": "owner",
      "outputs": [
        {
          "internalType": "address",
          "name": "",
          "type": "address"
        }
      ],
      "stateMutability": "view",
      "type": "function"
    },
    {
      "inputs": [],
      "name": "renounceOwnership",
      "outputs": [],
      "stateMutability": "nonpayable",
      "type": "function"
    },
    {
      "inputs": [
        {
          "internalType": "address",
          "name": "newOwner",
          "type": "address"
        }
      ],
      "name": "transferOwnership",
      "outputs": [],
      "stateMutability": "nonpayable",
      "type": "function"
    },
    {
      "inputs": [],
      "name": "winningProposalID",
      "outputs": [
        {
          "internalType": "uint256",
          "name": "",
          "type": "uint256"
        }
      ],
      "stateMutability": "view",
      "type": "function"
    },
    {
      "inputs": [],
      "name": "workflowStatus",
      "outputs": [
        {
          "internalType": "enum Voting.WorkflowStatus",
          "name": "",
          "type": "uint8"
        }
      ],
      "stateMutability": "view",
      "type": "function"
    },
    {
      "inputs": [
        {
          "internalType": "string",
          "name": "_description",
          "type": "string"
        }
      ],
      "name": "setDescription",
      "outputs": [],
      "stateMutability": "nonpayable",
      "type": "function"
    },
    {
      "inputs": [
        {
          "internalType": "address",
          "name": "_addr",
          "type": "address"
        }
      ],
      "name": "getVoter",
      "outputs": [
        {
          "components": [
            {
              "internalType": "bool",
              "name": "isRegistered",
              "type": "bool"
            },
            {
              "internalType": "bool",
              "name": "hasVoted",
              "type": "bool"
            },
            {
              "internalType": "uint256",
              "name": "proposalRegisteredCount",
              "type": "uint256"
            },
            {
              "internalType": "uint256",
              "name": "votedProposalId",
              "type": "uint256"
            }
          ],
          "internalType": "struct Voting.Voter",
          "name": "",
          "type": "tuple"
        }
      ],
      "stateMutability": "view",
      "type": "function"
    },
    {
      "inputs": [
        {
          "internalType": "uint256",
          "name": "_id",
          "type": "uint256"
        }
      ],
      "name": "getOneProposal",
      "outputs": [
        {
          "components": [
            {
              "internalType": "string",
              "name": "description",
              "type": "string"
            },
            {
              "internalType": "uint256",
              "name": "voteCount",
              "type": "uint256"
            }
          ],
          "internalType": "struct Voting.Proposal",
          "name": "",
          "type": "tuple"
        }
      ],
      "stateMutability": "view",
      "type": "function"
    },
    {
      "inputs": [
        {
          "internalType": "address",
          "name": "_addr",
          "type": "address"
        }
      ],
      "name": "addVoter",
      "outputs": [],
      "stateMutability": "nonpayable",
      "type": "function"
    },
    {
      "inputs": [
        {
          "internalType": "string",
          "name": "_desc",
          "type": "string"
        }
      ],
      "name": "addProposal",
      "outputs": [],
      "stateMutability": "nonpayable",
      "type": "function"
    },
    {
      "inputs": [
        {
          "internalType": "uint256",
          "name": "_id",
          "type": "uint256"
        }
      ],
      "name": "setVote",
      "outputs": [],
      "stateMutability": "nonpayable",
      "type": "function"
    },
    {
      "inputs": [],
      "name": "startProposalsRegistering",
      "outputs": [],
      "stateMutability": "nonpayable",
      "type": "function"
    },
    {
      "inputs": [],
      "name": "endProposalsRegistering",
      "outputs": [],
      "stateMutability": "nonpayable",
      "type": "function"
    },
    {
      "inputs": [],
      "name": "startVotingSession",
      "outputs": [],
      "stateMutability": "nonpayable",
      "type": "function"
    },
    {
      "inputs": [],
      "name": "endVotingSession",
      "outputs": [],
      "stateMutability": "nonpayable",
      "type": "function"
    },
    {
      "inputs": [],
      "name": "tallyVotes",
      "outputs": [],
      "stateMutability": "nonpayable",
      "type": "function"
    }
  ],
  "bytecode": "0x60806040523480156200001157600080fd5b5062000032620000266200003860201b60201c565b6200004060201b60201c565b62000104565b600033905090565b60008060009054906101000a900473ffffffffffffffffffffffffffffffffffffffff169050816000806101000a81548173ffffffffffffffffffffffffffffffffffffffff021916908373ffffffffffffffffffffffffffffffffffffffff1602179055508173ffffffffffffffffffffffffffffffffffffffff168173ffffffffffffffffffffffffffffffffffffffff167f8be0079c531659141344cd1fd0a4f28419497f9722a3daafe3b4186f6b6457e060405160405180910390a35050565b6126da80620001146000396000f3fe608060405234801561001057600080fd5b506004361061010b5760003560e01c8063a2788cce116100a2578063c88af42f11610071578063c88af42f14610234578063d4f50f981461023e578063ee74c6781461026e578063f2fde38b14610278578063f4ab9adf146102945761010b565b8063a2788cce146101d2578063a7bfab1614610202578063bdc014311461020c578063c7038a4e1461022a5761010b565b80637284e416116100de5780637284e4161461015c5780638da5cb5b1461017a57806390c3f38f14610198578063a1edffa2146101b45761010b565b8063230796ae146101105780632fdae3c51461012c578063378a217814610148578063715018a614610152575b600080fd5b61012a600480360381019061012591906117e8565b6102b0565b005b6101466004803603810190610141919061187a565b6105ab565b005b610150610912565b005b61015a610a7f565b005b610164610a93565b6040516101719190611960565b60405180910390f35b610182610b21565b60405161018f91906119c3565b60405180910390f35b6101b260048036038101906101ad919061187a565b610b4a565b005b6101bc610bde565b6040516101c99190611a55565b60405180910390f35b6101ec60048036038101906101e791906117e8565b610bf1565b6040516101f99190611b06565b60405180910390f35b61020a610d58565b005b610214610e3e565b6040516102219190611b37565b60405180910390f35b610232610e44565b005b61023c610fc6565b005b61025860048036038101906102539190611b7e565b6110ac565b6040516102659190611c1b565b60405180910390f35b6102766111de565b005b610292600480360381019061028d9190611b7e565b6112c3565b005b6102ae60048036038101906102a99190611b7e565b611346565b005b600560003373ffffffffffffffffffffffffffffffffffffffff1673ffffffffffffffffffffffffffffffffffffffff16815260200190815260200160002060000160009054906101000a900460ff1661033f576040517f08c379a000000000000000000000000000000000000000000000000000000000815260040161033690611c82565b60405180910390fd5b60036005811115610353576103526119de565b5b600360009054906101000a900460ff166005811115610375576103746119de565b5b146103b5576040517f08c379a00000000000000000000000000000000000000000000000000000000081526004016103ac90611d14565b60405180910390fd5b60011515600560003373ffffffffffffffffffffffffffffffffffffffff1673ffffffffffffffffffffffffffffffffffffffff16815260200190815260200160002060000160019054906101000a900460ff1615150361044b576040517f08c379a000000000000000000000000000000000000000000000000000000000815260040161044290611d80565b60405180910390fd5b6004805490508110610492576040517f08c379a000000000000000000000000000000000000000000000000000000000815260040161048990611dec565b60405180910390fd5b80600560003373ffffffffffffffffffffffffffffffffffffffff1673ffffffffffffffffffffffffffffffffffffffff168152602001908152602001600020600201819055506001600560003373ffffffffffffffffffffffffffffffffffffffff1673ffffffffffffffffffffffffffffffffffffffff16815260200190815260200160002060000160016101000a81548160ff0219169083151502179055506004818154811061054857610547611e0c565b5b9060005260206000209060020201600101600081548092919061056a90611e6a565b91905055507f4d99b957a2bc29a30ebd96a7be8e68fe50a3c701db28a91436490b7d53870ca433826040516105a0929190611eb2565b60405180910390a150565b600560003373ffffffffffffffffffffffffffffffffffffffff1673ffffffffffffffffffffffffffffffffffffffff16815260200190815260200160002060000160009054906101000a900460ff1661063a576040517f08c379a000000000000000000000000000000000000000000000000000000000815260040161063190611c82565b60405180910390fd5b6001600581111561064e5761064d6119de565b5b600360009054906101000a900460ff1660058111156106705761066f6119de565b5b146106b0576040517f08c379a00000000000000000000000000000000000000000000000000000000081526004016106a790611f27565b60405180910390fd5b6040516020016106bf90611f6d565b6040516020818303038152906040528051906020012082826040516020016106e8929190611fc9565b604051602081830303815290604052805190602001200361073e576040517f08c379a00000000000000000000000000000000000000000000000000000000081526004016107359061205f565b60405180910390fd5b6003600560003373ffffffffffffffffffffffffffffffffffffffff1673ffffffffffffffffffffffffffffffffffffffff16815260200190815260200160002060010154106107c3576040517f08c379a00000000000000000000000000000000000000000000000000000000081526004016107ba906120f1565b60405180910390fd5b6107cb611639565b82828080601f016020809104026020016040519081016040528093929190818152602001838380828437600081840152601f19601f82011690508083019250505050505050816000018190525060048190806001815401808255809150506001900390600052602060002090600202016000909190919091506000820151816000019080519060200190610860929190611653565b50602082015181600101555050600560003373ffffffffffffffffffffffffffffffffffffffff1673ffffffffffffffffffffffffffffffffffffffff16815260200190815260200160002060010160008154809291906108c090611e6a565b91905055507f92e393e9b54e2f801d3ea4beb0c5e71a21cc34a5d34b77d0fb8a3aa1650dc18f60016004805490506108f89190612111565b6040516109059190611b37565b60405180910390a1505050565b61091a6114ef565b6004600581111561092e5761092d6119de565b5b600360009054906101000a900460ff1660058111156109505761094f6119de565b5b14610990576040517f08c379a0000000000000000000000000000000000000000000000000000000008152600401610987906121b7565b60405180910390fd5b600080600090505b600480549050811015610a0e57600482815481106109b9576109b8611e0c565b5b906000526020600020906002020160010154600482815481106109df576109de611e0c565b5b90600052602060002090600202016001015411156109fb578091505b8080610a0690611e6a565b915050610998565b50806001819055506005600360006101000a81548160ff02191690836005811115610a3c57610a3b6119de565b5b02179055507f0a97a4ee45751e2abf3e4fc8946939630b11b371ea8ae39ccdc3056e98f5cc3f60046005604051610a749291906121d7565b60405180910390a150565b610a876114ef565b610a91600061156d565b565b60028054610aa09061222f565b80601f0160208091040260200160405190810160405280929190818152602001828054610acc9061222f565b8015610b195780601f10610aee57610100808354040283529160200191610b19565b820191906000526020600020905b815481529060010190602001808311610afc57829003601f168201915b505050505081565b60008060009054906101000a900473ffffffffffffffffffffffffffffffffffffffff16905090565b610b526114ef565b60006005811115610b6657610b656119de565b5b600360009054906101000a900460ff166005811115610b8857610b876119de565b5b14610bc8576040517f08c379a0000000000000000000000000000000000000000000000000000000008152600401610bbf906122d2565b60405180910390fd5b818160029190610bd99291906116d9565b505050565b600360009054906101000a900460ff1681565b610bf9611639565b600560003373ffffffffffffffffffffffffffffffffffffffff1673ffffffffffffffffffffffffffffffffffffffff16815260200190815260200160002060000160009054906101000a900460ff16610c88576040517f08c379a0000000000000000000000000000000000000000000000000000000008152600401610c7f90611c82565b60405180910390fd5b60048281548110610c9c57610c9b611e0c565b5b9060005260206000209060020201604051806040016040529081600082018054610cc59061222f565b80601f0160208091040260200160405190810160405280929190818152602001828054610cf19061222f565b8015610d3e5780601f10610d1357610100808354040283529160200191610d3e565b820191906000526020600020905b815481529060010190602001808311610d2157829003601f168201915b505050505081526020016001820154815250509050919050565b610d606114ef565b60036005811115610d7457610d736119de565b5b600360009054906101000a900460ff166005811115610d9657610d956119de565b5b14610dd6576040517f08c379a0000000000000000000000000000000000000000000000000000000008152600401610dcd90611d14565b60405180910390fd5b6004600360006101000a81548160ff02191690836005811115610dfc57610dfb6119de565b5b02179055507f0a97a4ee45751e2abf3e4fc8946939630b11b371ea8ae39ccdc3056e98f5cc3f60036004604051610e349291906121d7565b60405180910390a1565b60015481565b610e4c6114ef565b60006005811115610e6057610e5f6119de565b5b600360009054906101000a900460ff166005811115610e8257610e816119de565b5b14610ec2576040517f08c379a0000000000000000000000000000000000000000000000000000000008152600401610eb990612364565b60405180910390fd5b6001600360006101000a81548160ff02191690836005811115610ee857610ee76119de565b5b0217905550610ef5611639565b6040518060400160405280600781526020017f47454e4553495300000000000000000000000000000000000000000000000000815250816000018190525060048190806001815401808255809150506001900390600052602060002090600202016000909190919091506000820151816000019080519060200190610f7b929190611653565b506020820151816001015550507f0a97a4ee45751e2abf3e4fc8946939630b11b371ea8ae39ccdc3056e98f5cc3f60006001604051610fbb9291906121d7565b60405180910390a150565b610fce6114ef565b60016005811115610fe257610fe16119de565b5b600360009054906101000a900460ff166005811115611004576110036119de565b5b14611044576040517f08c379a000000000000000000000000000000000000000000000000000000000815260040161103b906123f6565b60405180910390fd5b6002600360006101000a81548160ff0219169083600581111561106a576110696119de565b5b02179055507f0a97a4ee45751e2abf3e4fc8946939630b11b371ea8ae39ccdc3056e98f5cc3f600160026040516110a29291906121d7565b60405180910390a1565b6110b461175f565b600560003373ffffffffffffffffffffffffffffffffffffffff1673ffffffffffffffffffffffffffffffffffffffff16815260200190815260200160002060000160009054906101000a900460ff16611143576040517f08c379a000000000000000000000000000000000000000000000000000000000815260040161113a90611c82565b60405180910390fd5b600560008373ffffffffffffffffffffffffffffffffffffffff1673ffffffffffffffffffffffffffffffffffffffff1681526020019081526020016000206040518060800160405290816000820160009054906101000a900460ff161515151581526020016000820160019054906101000a900460ff16151515158152602001600182015481526020016002820154815250509050919050565b6111e66114ef565b600260058111156111fa576111f96119de565b5b600360009054906101000a900460ff16600581111561121c5761121b6119de565b5b1461125c576040517f08c379a000000000000000000000000000000000000000000000000000000000815260040161125390612488565b60405180910390fd5b60038060006101000a81548160ff02191690836005811115611281576112806119de565b5b02179055507f0a97a4ee45751e2abf3e4fc8946939630b11b371ea8ae39ccdc3056e98f5cc3f600260036040516112b99291906121d7565b60405180910390a1565b6112cb6114ef565b600073ffffffffffffffffffffffffffffffffffffffff168173ffffffffffffffffffffffffffffffffffffffff160361133a576040517f08c379a00000000000000000000000000000000000000000000000000000000081526004016113319061251a565b60405180910390fd5b6113438161156d565b50565b61134e6114ef565b60006005811115611362576113616119de565b5b600360009054906101000a900460ff166005811115611384576113836119de565b5b146113c4576040517f08c379a00000000000000000000000000000000000000000000000000000000081526004016113bb906125ac565b60405180910390fd5b60011515600560008373ffffffffffffffffffffffffffffffffffffffff1673ffffffffffffffffffffffffffffffffffffffff16815260200190815260200160002060000160009054906101000a900460ff1615150361145a576040517f08c379a000000000000000000000000000000000000000000000000000000000815260040161145190612618565b60405180910390fd5b6001600560008373ffffffffffffffffffffffffffffffffffffffff1673ffffffffffffffffffffffffffffffffffffffff16815260200190815260200160002060000160006101000a81548160ff0219169083151502179055507fb6be2187d059cc2a55fe29e0e503b566e1e0f8c8780096e185429350acffd3dd816040516114e491906119c3565b60405180910390a150565b6114f7611631565b73ffffffffffffffffffffffffffffffffffffffff16611515610b21565b73ffffffffffffffffffffffffffffffffffffffff161461156b576040517f08c379a000000000000000000000000000000000000000000000000000000000815260040161156290612684565b60405180910390fd5b565b60008060009054906101000a900473ffffffffffffffffffffffffffffffffffffffff169050816000806101000a81548173ffffffffffffffffffffffffffffffffffffffff021916908373ffffffffffffffffffffffffffffffffffffffff1602179055508173ffffffffffffffffffffffffffffffffffffffff168173ffffffffffffffffffffffffffffffffffffffff167f8be0079c531659141344cd1fd0a4f28419497f9722a3daafe3b4186f6b6457e060405160405180910390a35050565b600033905090565b604051806040016040528060608152602001600081525090565b82805461165f9061222f565b90600052602060002090601f01602090048101928261168157600085556116c8565b82601f1061169a57805160ff19168380011785556116c8565b828001600101855582156116c8579182015b828111156116c75782518255916020019190600101906116ac565b5b5090506116d5919061178b565b5090565b8280546116e59061222f565b90600052602060002090601f016020900481019282611707576000855561174e565b82601f1061172057803560ff191683800117855561174e565b8280016001018555821561174e579182015b8281111561174d578235825591602001919060010190611732565b5b50905061175b919061178b565b5090565b604051806080016040528060001515815260200160001515815260200160008152602001600081525090565b5b808211156117a457600081600090555060010161178c565b5090565b600080fd5b600080fd5b6000819050919050565b6117c5816117b2565b81146117d057600080fd5b50565b6000813590506117e2816117bc565b92915050565b6000602082840312156117fe576117fd6117a8565b5b600061180c848285016117d3565b91505092915050565b600080fd5b600080fd5b600080fd5b60008083601f84011261183a57611839611815565b5b8235905067ffffffffffffffff8111156118575761185661181a565b5b6020830191508360018202830111156118735761187261181f565b5b9250929050565b60008060208385031215611891576118906117a8565b5b600083013567ffffffffffffffff8111156118af576118ae6117ad565b5b6118bb85828601611824565b92509250509250929050565b600081519050919050565b600082825260208201905092915050565b60005b838110156119015780820151818401526020810190506118e6565b83811115611910576000848401525b50505050565b6000601f19601f8301169050919050565b6000611932826118c7565b61193c81856118d2565b935061194c8185602086016118e3565b61195581611916565b840191505092915050565b6000602082019050818103600083015261197a8184611927565b905092915050565b600073ffffffffffffffffffffffffffffffffffffffff82169050919050565b60006119ad82611982565b9050919050565b6119bd816119a2565b82525050565b60006020820190506119d860008301846119b4565b92915050565b7f4e487b7100000000000000000000000000000000000000000000000000000000600052602160045260246000fd5b60068110611a1e57611a1d6119de565b5b50565b6000819050611a2f82611a0d565b919050565b6000611a3f82611a21565b9050919050565b611a4f81611a34565b82525050565b6000602082019050611a6a6000830184611a46565b92915050565b600082825260208201905092915050565b6000611a8c826118c7565b611a968185611a70565b9350611aa68185602086016118e3565b611aaf81611916565b840191505092915050565b611ac3816117b2565b82525050565b60006040830160008301518482036000860152611ae68282611a81565b9150506020830151611afb6020860182611aba565b508091505092915050565b60006020820190508181036000830152611b208184611ac9565b905092915050565b611b31816117b2565b82525050565b6000602082019050611b4c6000830184611b28565b92915050565b611b5b816119a2565b8114611b6657600080fd5b50565b600081359050611b7881611b52565b92915050565b600060208284031215611b9457611b936117a8565b5b6000611ba284828501611b69565b91505092915050565b60008115159050919050565b611bc081611bab565b82525050565b608082016000820151611bdc6000850182611bb7565b506020820151611bef6020850182611bb7565b506040820151611c026040850182611aba565b506060820151611c156060850182611aba565b50505050565b6000608082019050611c306000830184611bc6565b92915050565b7f596f75277265206e6f74206120766f7465720000000000000000000000000000600082015250565b6000611c6c6012836118d2565b9150611c7782611c36565b602082019050919050565b60006020820190508181036000830152611c9b81611c5f565b9050919050565b7f566f74696e672073657373696f6e20686176656e74207374617274656420796560008201527f7400000000000000000000000000000000000000000000000000000000000000602082015250565b6000611cfe6021836118d2565b9150611d0982611ca2565b604082019050919050565b60006020820190508181036000830152611d2d81611cf1565b9050919050565b7f596f75206861766520616c726561647920766f74656400000000000000000000600082015250565b6000611d6a6016836118d2565b9150611d7582611d34565b602082019050919050565b60006020820190508181036000830152611d9981611d5d565b9050919050565b7f50726f706f73616c206e6f7420666f756e640000000000000000000000000000600082015250565b6000611dd66012836118d2565b9150611de182611da0565b602082019050919050565b60006020820190508181036000830152611e0581611dc9565b9050919050565b7f4e487b7100000000000000000000000000000000000000000000000000000000600052603260045260246000fd5b7f4e487b7100000000000000000000000000000000000000000000000000000000600052601160045260246000fd5b6000611e75826117b2565b91507fffffffffffffffffffffffffffffffffffffffffffffffffffffffffffffffff8203611ea757611ea6611e3b565b5b600182019050919050565b6000604082019050611ec760008301856119b4565b611ed46020830184611b28565b9392505050565b7f50726f706f73616c7320617265206e6f7420616c6c6f77656420796574000000600082015250565b6000611f11601d836118d2565b9150611f1c82611edb565b602082019050919050565b60006020820190508181036000830152611f4081611f04565b9050919050565b50565b6000611f576000836118d2565b9150611f6282611f47565b600082019050919050565b60006020820190508181036000830152611f8681611f4a565b9050919050565b82818337600083830152505050565b6000611fa883856118d2565b9350611fb5838584611f8d565b611fbe83611916565b840190509392505050565b60006020820190508181036000830152611fe4818486611f9c565b90509392505050565b7f566f7573206e6520706f7576657a20706173206e65207269656e2070726f706f60008201527f7365720000000000000000000000000000000000000000000000000000000000602082015250565b60006120496023836118d2565b915061205482611fed565b604082019050919050565b600060208201905081810360008301526120788161203c565b9050919050565b7f566f7573206e6520706f7576657a20706173206661697265202b20646520332060008201527f70726f706f736974696f6e730000000000000000000000000000000000000000602082015250565b60006120db602c836118d2565b91506120e68261207f565b604082019050919050565b6000602082019050818103600083015261210a816120ce565b9050919050565b600061211c826117b2565b9150612127836117b2565b92508282101561213a57612139611e3b565b5b828203905092915050565b7f43757272656e7420737461747573206973206e6f7420766f74696e672073657360008201527f73696f6e20656e64656400000000000000000000000000000000000000000000602082015250565b60006121a1602a836118d2565b91506121ac82612145565b604082019050919050565b600060208201905081810360008301526121d081612194565b9050919050565b60006040820190506121ec6000830185611a46565b6121f96020830184611a46565b9392505050565b7f4e487b7100000000000000000000000000000000000000000000000000000000600052602260045260246000fd5b6000600282049050600182168061224757607f821691505b60208210810361225a57612259612200565b5b50919050565b7f43616e6e6f74206368616e6765206465736372697074696f6e20616e796d6f7260008201527f6500000000000000000000000000000000000000000000000000000000000000602082015250565b60006122bc6021836118d2565b91506122c782612260565b604082019050919050565b600060208201905081810360008301526122eb816122af565b9050919050565b7f5265676973746572696e672070726f706f73616c732063616e7420626520737460008201527f6172746564206e6f770000000000000000000000000000000000000000000000602082015250565b600061234e6029836118d2565b9150612359826122f2565b604082019050919050565b6000602082019050818103600083015261237d81612341565b9050919050565b7f5265676973746572696e672070726f706f73616c7320686176656e742073746160008201527f7274656420796574000000000000000000000000000000000000000000000000602082015250565b60006123e06028836118d2565b91506123eb82612384565b604082019050919050565b6000602082019050818103600083015261240f816123d3565b9050919050565b7f5265676973746572696e672070726f706f73616c73207068617365206973206e60008201527f6f742066696e6973686564000000000000000000000000000000000000000000602082015250565b6000612472602b836118d2565b915061247d82612416565b604082019050919050565b600060208201905081810360008301526124a181612465565b9050919050565b7f4f776e61626c653a206e6577206f776e657220697320746865207a65726f206160008201527f6464726573730000000000000000000000000000000000000000000000000000602082015250565b60006125046026836118d2565b915061250f826124a8565b604082019050919050565b60006020820190508181036000830152612533816124f7565b9050919050565b7f566f7465727320726567697374726174696f6e206973206e6f74206f70656e2060008201527f7965740000000000000000000000000000000000000000000000000000000000602082015250565b60006125966023836118d2565b91506125a18261253a565b604082019050919050565b600060208201905081810360008301526125c581612589565b9050919050565b7f416c726561647920726567697374657265640000000000000000000000000000600082015250565b60006126026012836118d2565b915061260d826125cc565b602082019050919050565b60006020820190508181036000830152612631816125f5565b9050919050565b7f4f776e61626c653a2063616c6c6572206973206e6f7420746865206f776e6572600082015250565b600061266e6020836118d2565b915061267982612638565b602082019050919050565b6000602082019050818103600083015261269d81612661565b905091905056fea2646970667358221220d9c245f90586fb94cd1ed45c03fca51acb88f47447bdd5421b65e96f53bc374164736f6c634300080d0033",
  "immutableReferences": {},
  "source": "// SPDX-License-Identifier: MIT\n\npragma solidity 0.8.13;\n// import 'https://github.com/OpenZeppelin/openzeppelin-contracts/blob/master/contracts/access/Ownable.sol';\nimport \"../node_modules/@openzeppelin/contracts/access/Ownable.sol\";\n\n/**\n * @dev Voting Contract\n *\n * Voting contract extends Ownable\n *\n */\ncontract Voting is Ownable {\n\n    uint public winningProposalID;\n    string public description;\n\n    struct Voter {\n        bool isRegistered;\n        bool hasVoted;\n        uint proposalRegisteredCount; // limit to 3\n        // Si un voter peut ajouter autant de proposition qu'il veut, il peut alors faire grossir le tableau au point de ne plus pouvoir appeller la function \"tallyvotes\"\n        uint votedProposalId;\n    }\n\n    struct Proposal {\n        string description;\n        uint voteCount;\n    }\n\n    enum WorkflowStatus {\n        RegisteringVoters,\n        ProposalsRegistrationStarted,\n        ProposalsRegistrationEnded,\n        VotingSessionStarted,\n        VotingSessionEnded,\n        VotesTallied\n    }\n\n    WorkflowStatus public workflowStatus;\n    Proposal[] proposalsArray;\n    mapping (address => Voter) voters;\n\n\n    event VoterRegistered(address voterAddress);\n    event WorkflowStatusChange(WorkflowStatus previousStatus, WorkflowStatus newStatus);\n    event ProposalRegistered(uint proposalId);\n    event Voted (address voter, uint proposalId);\n\n    modifier onlyVoters() {\n        require(voters[msg.sender].isRegistered, \"You're not a voter\");\n        _;\n    }\n\n    /**\n     * @dev The owner can set the description (the question) of the Voting Session\n     *\n     * After ProposalRegistration started, it cannot be changed anymore\n     *\n     */\n    function setDescription(string calldata _description) external onlyOwner {\n        require(workflowStatus == WorkflowStatus.RegisteringVoters, 'Cannot change description anymore');\n        description = _description;\n    }\n\n    // ::::::::::::: GETTERS ::::::::::::: //\n\n    /**\n     * @dev Return a Voter - only accessible by Voters\n     *\n     */\n    function getVoter(address _addr) external onlyVoters view returns (Voter memory) {\n        return voters[_addr];\n    }\n\n    /**\n     * @dev Return a Proposal - only accessible by Voters\n     *\n     */\n    function getOneProposal(uint _id) external onlyVoters view returns (Proposal memory) {\n        return proposalsArray[_id];\n    }\n\n\n    // ::::::::::::: REGISTRATION ::::::::::::: //\n\n    function addVoter(address _addr) external onlyOwner {\n        require(workflowStatus == WorkflowStatus.RegisteringVoters, 'Voters registration is not open yet');\n        require(voters[_addr].isRegistered != true, 'Already registered');\n\n        voters[_addr].isRegistered = true;\n        emit VoterRegistered(_addr);\n    }\n\n\n    // ::::::::::::: PROPOSAL ::::::::::::: //\n\n    /**\n     * @dev Add a new proposal\n     *\n     * Requirements:\n     *\n     * - `_desc` must not be empty\n     *\n     * Security :\n     * - Each voter can add no more than 3 proposal\n     * - This is to prevent having too much proposals in the array and not be able to use TallyVote anymore.\n     */\n    function addProposal(string calldata _desc) external onlyVoters {\n        require(workflowStatus == WorkflowStatus.ProposalsRegistrationStarted, 'Proposals are not allowed yet');\n        require(keccak256(abi.encode(_desc)) != keccak256(abi.encode(\"\")), 'Vous ne pouvez pas ne rien proposer'); // facultatif\n        // voir que desc est different des autres\n        require(voters[msg.sender].proposalRegisteredCount < 3, 'Vous ne pouvez pas faire + de 3 propositions');\n\n        Proposal memory proposal;\n        proposal.description = _desc;\n        proposalsArray.push(proposal);\n        voters[msg.sender].proposalRegisteredCount++;\n        emit ProposalRegistered(proposalsArray.length-1);\n    }\n\n    // ::::::::::::: VOTE ::::::::::::: //\n\n     /**\n     * @dev Vote for a proposal - sender must be a voter\n     *\n     * Requirements:\n     *\n     * - `_id` must not be less than proposalArray.length\n     *\n     */\n    function setVote( uint _id) external onlyVoters {\n        require(workflowStatus == WorkflowStatus.VotingSessionStarted, 'Voting session havent started yet');\n        require(voters[msg.sender].hasVoted != true, 'You have already voted');\n        require(_id < proposalsArray.length, 'Proposal not found'); // pas oblig, et pas besoin du >0 car uint\n\n        voters[msg.sender].votedProposalId = _id;\n        voters[msg.sender].hasVoted = true;\n        proposalsArray[_id].voteCount++;\n\n        emit Voted(msg.sender, _id);\n    }\n\n    // ::::::::::::: STATE ::::::::::::: //\n\n\n    /**\n     * @dev Start proposal Registration\n     *\n     * - Sender must be owner\n     * - workflow must be at RegisteringVoters\n     */\n    function startProposalsRegistering() external onlyOwner {\n        require(workflowStatus == WorkflowStatus.RegisteringVoters, 'Registering proposals cant be started now');\n        workflowStatus = WorkflowStatus.ProposalsRegistrationStarted;\n\n        Proposal memory proposal;\n        proposal.description = \"GENESIS\";\n        proposalsArray.push(proposal);\n\n        emit WorkflowStatusChange(WorkflowStatus.RegisteringVoters, WorkflowStatus.ProposalsRegistrationStarted);\n    }\n\n    /**\n     * @dev End proposal Registration\n     *\n     * - Sender must be owner\n     * - workflow must be at ProposalsRegistrationStarted\n     */\n    function endProposalsRegistering() external onlyOwner {\n        require(workflowStatus == WorkflowStatus.ProposalsRegistrationStarted, 'Registering proposals havent started yet');\n        workflowStatus = WorkflowStatus.ProposalsRegistrationEnded;\n        emit WorkflowStatusChange(WorkflowStatus.ProposalsRegistrationStarted, WorkflowStatus.ProposalsRegistrationEnded);\n    }\n\n    /**\n     * @dev Start Voting Session\n     *\n     * - Sender must be owner\n     * - workflow must be at ProposalsRegistrationEnded\n     */\n    function startVotingSession() external onlyOwner {\n        require(workflowStatus == WorkflowStatus.ProposalsRegistrationEnded, 'Registering proposals phase is not finished');\n        workflowStatus = WorkflowStatus.VotingSessionStarted;\n        emit WorkflowStatusChange(WorkflowStatus.ProposalsRegistrationEnded, WorkflowStatus.VotingSessionStarted);\n    }\n\n    /**\n     * @dev End Voting Session\n     *\n     * - Sender must be owner\n     * - workflow must be at VotingSessionStarted\n     */\n    function endVotingSession() external onlyOwner {\n        require(workflowStatus == WorkflowStatus.VotingSessionStarted, 'Voting session havent started yet');\n        workflowStatus = WorkflowStatus.VotingSessionEnded;\n        emit WorkflowStatusChange(WorkflowStatus.VotingSessionStarted, WorkflowStatus.VotingSessionEnded);\n    }\n\n    /**\n     * @dev Call this metho to tally vote\n     *\n     * - Sender must be owner\n     * - workflow must be at VotingSessionEnded\n     */\n    function tallyVotes() external onlyOwner {\n       require(workflowStatus == WorkflowStatus.VotingSessionEnded, \"Current status is not voting session ended\");\n       uint _winningProposalId;\n       for (uint256 p = 0; p < proposalsArray.length; p++) {\n           if (proposalsArray[p].voteCount > proposalsArray[_winningProposalId].voteCount) {\n               _winningProposalId = p;\n          }\n       }\n       winningProposalID = _winningProposalId;\n\n       workflowStatus = WorkflowStatus.VotesTallied;\n       emit WorkflowStatusChange(WorkflowStatus.VotingSessionEnded, WorkflowStatus.VotesTallied);\n    }\n}",
  "sourcePath": "/Volumes/code/Alyra/VotingDapp/truffle/contracts/Voting.sol",
  "compiler": {
    "name": "solc",
    "version": "0.8.13+commit.abaa5c0e.Emscripten.clang"
  },
  "schemaVersion": "3.4.10",
  "updatedAt": "2022-11-22T01:57:49.155Z",
  "devdoc": {
    "details": "Voting Contract Voting contract extends Ownable",
    "kind": "dev",
    "methods": {
      "addProposal(string)": {
        "details": "Add a new proposal Requirements: - `_desc` must not be empty Security : - Each voter can add no more than 3 proposal - This is to prevent having too much proposals in the array and not be able to use TallyVote anymore."
      },
      "endProposalsRegistering()": {
        "details": "End proposal Registration - Sender must be owner - workflow must be at ProposalsRegistrationStarted"
      },
      "endVotingSession()": {
        "details": "End Voting Session - Sender must be owner - workflow must be at VotingSessionStarted"
      },
      "getOneProposal(uint256)": {
        "details": "Return a Proposal - only accessible by Voters"
      },
      "getVoter(address)": {
        "details": "Return a Voter - only accessible by Voters"
      },
      "owner()": {
        "details": "Returns the address of the current owner."
      },
      "renounceOwnership()": {
        "details": "Leaves the contract without owner. It will not be possible to call `onlyOwner` functions anymore. Can only be called by the current owner. NOTE: Renouncing ownership will leave the contract without an owner, thereby removing any functionality that is only available to the owner."
      },
      "setDescription(string)": {
        "details": "The owner can set the description (the question) of the Voting Session After ProposalRegistration started, it cannot be changed anymore"
      },
      "setVote(uint256)": {
        "details": "Vote for a proposal - sender must be a voter Requirements: - `_id` must not be less than proposalArray.length"
      },
      "startProposalsRegistering()": {
        "details": "Start proposal Registration - Sender must be owner - workflow must be at RegisteringVoters"
      },
      "startVotingSession()": {
        "details": "Start Voting Session - Sender must be owner - workflow must be at ProposalsRegistrationEnded"
      },
      "tallyVotes()": {
        "details": "Call this metho to tally vote - Sender must be owner - workflow must be at VotingSessionEnded"
      },
      "transferOwnership(address)": {
        "details": "Transfers ownership of the contract to a new account (`newOwner`). Can only be called by the current owner."
      }
    },
    "version": 1
  },
  "userdoc": {
    "kind": "user",
    "methods": {},
    "version": 1
  }
}